:020000041000EA
:1000000000B5324B212058609868022188439860DF
:10001000D860186158612E4B002199600221596106
:100020000121F02299502B49196001219960352056
:1000300000F044F80222904214D00621196600F024
:1000400034F8196E01211966002018661A6600F04E
:100050002CF8196E196E196E052000F02FF8012189
:100060000842F9D1002199601B49196000215960AB
:100070001A491B48016001219960EB211966A021F2
:10008000196600F012F800219960164914480160C1
:100090000121996001BC002800D000471248134993
:1000A000086003C880F30888084703B5996A0420EC
:1000B0000142FBD001200142F8D103BD02B5186610
:1000C0001866FFF7F2FF186E186E02BD00000240BE
:1000D000000000180000070000035F00212200005C
:1000E000F4000018222000A00001001008ED00E03C
:1000F00000000000000000000000000074B24E7A12
:1001000000200420F7010010C3010010C5010010F9
:10011000C1010010C1010010C1010010C101001097
:10012000C1010010C1010010C1010010C701001081
:10013000C1010010C1010010C9010010CB01001065
:10014000CD010010CD010010CD010010CD01001037
:10015000CD010010CD010010CD010010CD01001027
:10016000CD010010CD010010CD010010CD01001017
:10017000CD010010CD010010CD010010CD01001007
:10018000CD010010CD010010CD010010CD010010F7
:10019000CD010010CD010010CD010010CD010010E7
:1001A000CD010010CD010010CD010010CD010010D7
:1001B000CD010010CD010010CD010010CD010010C7
:1001C00000BE00BE00BE00BE00BE00BE00F04BF888
:1001D000103800BEF2EB88715852001078520010AF
:1001E0003402001090A31AE700202149086006C8D5
:1001F00081F3088810471F48006800282FD10DA4FC
:100200000ECC002902D000F012F8F9E71A491B4A77
:10021000002000E001C19142FCD1194988471949E9
:1002200088471949884700BEFDE701C901C29A42C3
:10023000FBD3704778520010C00000206C020020F1
:100240002454001000000420000004202454001056
:1002500000100420001004200000000070470B482C
:1002600002F06EFF0047EFF30580C0B27047000058
:1002700008ED00E0000000D070020020440A0020D9
:10028000411B00100D030010FD1A0010575600000E
:1002900006005250ABB36053F851001006005250A4
:1002A000861C030208520010060052505422A29DE0
:1002B0001852001005005250DE65F46824540010F6
:1002C000F8B5C04610B5064C2378002B07D1054B76
:1002D000002B02D0044800E000BF0123237010BDB2
:1002E000700300200000000018430010044B10B5FC
:1002F000002B03D00349044800E000BF10BDC046F6
:1003000000000000740300201843001070B503F0D3
:10031000A9FFE121194C4902200001F0ADFB00F0DA
:1003200035F8E26A662353406E221A4080256D013B
:10033000134B2B431A60E16A10220A401A60022113
:10034000002000F089F80221012000F085F80D4915
:10035000142000F075F90121142000F061F9202328
:10036000A363626B193B1340074A15432B6000F0EF
:100370005BF8FA20800000F0B9FFF8E70040034086
:100380002C400340D103001034400340084B80222E
:10039000D20000219950074A0C319950002304E003
:1003A000054AD15C024AD15401330B2BF8DD70476A
:1003B000380600200404000018430010836B5B091A
:1003C00001201840704783699B06FCD40160704788
:1003D00070B5114B9B699B0600D570BD0E48FFF7A9
:1003E000EDFF0028F9D00D4C8025ED006359013355
:1003F0006351E15C0848FFF7E6FF6259084BE35898
:100400009A42EAD1074AC0239B01134320221A6073
:10041000024A00215151E0E7004003403806002025
:10042000040400003840034010B5084B9B699B064C
:1004300000D510BD064B19780448FFF7C4FF054AE4
:1004400080239B01134320221A60F2E700400340FF
:10045000380600203840034010B58300084A94460F
:1004600063441C6840226240C02414408022520130
:1004700013431C60C000034B9C466044416010BDA8
:1004800004C0014000400140EFF3108072B6034BFE
:100490001B68002BFBD0BFF35F8F70472C0100D08F
:1004A000BFF35F8F024B00221A6080F31088704701
:1004B0002C0100D0F8B506000C001500FFF7E4FF92
:1004C000E308F718F15C07222240012393400B4216
:1004D00005D1DBB20B433B70FFF7E2FFF8BD210013
:1004E000280001F0A9FB0000034B1B680220184004
:1004F000431E9841C0B2704700C00640002307E089
:10050000054A9A189200BFF35F8F002111600133F2
:100510001F2BF5D97047C04640000034054A1078BB
:10052000431CDBB21370172B02D9130010221A7070
:100530007047C046B0010020074B9B681030800018
:100540001950BFF35F8FBFF35F8F044B0021196019
:1005500082F310887047C04600ED00E0240100D00F
:1005600010B5091A081F0A4B9C466144094A91427A
:1005700008D8C30706D440104005400D064B184369
:1005800080B210BD054B064A9921064801F0BAFA1F
:10059000FC070000FE0F000000E0FFFF28430010F2
:1005A000784500105843001010B5091A04394C085A
:1005B000090B08D14905490D064A11430180064B34
:1005C0002343438010BD054B054AA121054801F096
:1005D00099FAC04600F0FFFF00F8FFFFA4430010A7
:1005E0004C4500105843001001238340034A106813
:1005F0001840431E9841C0B27047C04600E100E079
:10060000002904D0034B1860034B18607047034B5C
:100610001860FBE780E200E000E100E080E100E03C
:1006200010B5012383401800FFF7EAFF10BD00005A
:10063000024B9B6810308000C058704700ED00E00E
:1006400070B504000D00EFF3108672B60C4B1B68FA
:10065000002BFBD0BFF35F8F2000FFF7E9FF094BB2
:10066000984201D0A84205D1320029002000FFF7AE
:1006700063FF70BD044B054A7C21054801F042FA36
:10068000240100D0CD010010B443001094450010A7
:1006900058430010F0B5CE46474680B583B00600FB
:1006A0000D00EFF3108872B6564B1B68002BFBD081
:1006B000BFF35F8F544B9A6834001034A300D758AF
:1006C000524B9F4207D0AF4200D199E00197504B67
:1006D000FB1A2F2B09D9424639003000FFF72CFFB7
:1006E00003B0C0BCB946B046F0BD3000FFF77CFF98
:1006F000814600213000FFF793FFBFF35F8FFFF7C4
:10070000B2FD002801D0844211D10123019C9C43F9
:100710000022A368AB4212D00622A256002A0DDBAB
:1007200053009B189B002200394CE418F1E72C2160
:10073000384B394AFF31394801F0E4F92200AB4225
:1007400057D106256557002D39DB6B005B199A00E0
:100750002F4B9B189A68A260DA79E27106229A56AA
:10076000A2719B795BB2002B10DABD200002A08041
:100770006B005B199B00264AD318294A117899719E
:10078000157049463000FFF74BFFA4E7201D6B00B2
:100790005B199B001E4A9B181A1D9B88D90A1C29AD
:1007A00007D15B055B15023359005118FFF7D8FEDE
:1007B000DDE71C4B1C4AA721184801F0A3F90028CB
:1007C00012D1002A0ED0FF239371184B9380144A44
:1007D0001378A371164B0E49641A644163431B0DD1
:1007E0001370CEE7094FF2E7201D1249FFF7DCFE38
:1007F000C7E76021104B084AFF31084801F082F931
:10080000024F68E7240100D000ED00E0CD010010A8
:10081000B4010020C8440010644500105843001083
:10082000410A0020B04400108445001000BDFFFFC5
:10083000AAAA0000EE010020EC44001070B50400EC
:10084000012606432D4BF31A2F2B28D8FFF70BFD5B
:1008500000282BD0EFF3108C72B6294B1B68002BAD
:10086000FBD0BFF35F8F274D22002449521A52411B
:1008700055432D0D6DB2244B9B6880001B58B3422D
:100880001BD00022032A32D853009B189B001B491F
:10089000CB189B795BB2AB421FD00132F2E7C22189
:1008A0001A4B1B4A49001B4801F02CF988211A4BAE
:1008B000174AFF31174801F025F9134B9B68174A77
:1008C0001A50174B1A78A2711D70BFF35F8F0C4B33
:1008D00000221A608CF3108870BD0800530099182C
:1008E00089004118FF268E710E4A8A80E9E7CC21E3
:1008F0000D4B074A4900074801F004F9B4010020F4
:10090000240100D0AAAA000000ED00E0F444001089
:1009100030450010584300101C450010CD01001058
:10092000410A002000BDFFFF284500100022044BB3
:1009300002E0044902C30132072AFAD97047C046CF
:1009400000E400E080808080024B9C466144890086
:10095000016070474000003470B505000C000800CD
:1009600000F014FD200000F0F9FD0849200000F01F
:1009700039FDFFF7D3FD064B9C466044800068605C
:100980002C75A400034BE55070BDC0469D0C0010B3
:10099000400000340C0400200A4B1A68EFF3108169
:1009A00072B61368002BFCD0BFF35F8F054B1B683A
:1009B000BFF35F8F00221A6081F3108840BF0020D0
:1009C000002170472006002010B5002922D00368BE
:1009D0001B7B99421ED8174B9C46614409018368D2
:1009E0009C4661440C684968002A19D003681B7B47
:1009F0009A4215D883680F488446624412019A18B7
:100A000010685368020001208B4201D80ED00020EC
:100A1000C0B210BD084B094A3B21094801F072F8E9
:100A2000054B064A3B21064801F06CF8A242EFD87C
:100A3000EDE7C046FFFFFF0F08460010A448001076
:100A4000C445001010B500291ED0037B99421BD865
:100A50004B005B18033B0468A4466344002919D08B
:100A6000002A1DD0914221D0002A25D0047BA24229
:100A700022D8046850008018033820188170197833
:100A800000291FD11A7010BD104B114A682111485E
:100A900001F038F8104B114A6F310E4801F032F86E
:100AA0000F4B0E4A70210B4801F02CF80D4B0B4AEE
:100AB0007121084801F026F8044B054A68210548D1
:100AC00001F020F841701A70DDE7C0463C46001086
:100AD0001049001058460010B0460010EC480010B5
:100AE000BC460010C846001070B506000D0014008A
:100AF000002914D0002A14D0806873689847002811
:100B000006D0220029003000FFF79CFF280007E0F4
:100B10002A0021003000FFF795FF200000E01000C0
:100B200070BD0800FCE70000F0B583B0050000923E
:100B300001930AAB1C780BAB1F78002C26D00368FE
:100B40005A7B944207D10123002B19D1002C3BD1B1
:100B5000200003B0F0BD002C0CD01A7B944209D8C1
:100B60001A6863001B19033BD3189B78002BEBD04A
:100B70000123E9E73E4B3F4A68213F4800F0C2FFAE
:100B80003E4B3F4A65213F4800F0BCFF03689C7B19
:100B9000002CDBD012D01A7B94420FD862001219BD
:100BA000033A19688C46624451789973002900D140
:100BB000D9730023937053701370C7E72C4B2D4AE1
:100BC00068212D4800F09EFF002C3AD02B681B7B3B
:100BD0009C4236D82C4BE3181B01AA689446634408
:100BE000009A1A60019A5A60089A9A60099ADA6023
:100BF0002E68002C2BD030D0337B9C422DD8630044
:100C00001B19033B32689446634400229A705A7061
:100C10001A70717B22003000FFF766FF7073844208
:100C200000D095E7287D009A019B00F023FC061E6A
:100C300001D0002F17D00C9B002B00D188E71E702D
:100C400086E7124B124A3B210E4800F05BFF114B26
:100C5000114AA521084800F055FF054B054A6821B7
:100C6000054800F04FFF2868210000F02BFEE2E766
:100C70003C4600101049001058460010E046001095
:100C80001C490010C4450010FFFFFF0F084600106C
:100C9000A4480010C045001000490010F0B5DE4621
:100CA00057464E464546E0B58BB009900023089361
:100CB0008200B24BD658370032E0B14BB14A3F21E7
:100CC000B14800F01FFFB14BB14A3B21B14800F0E1
:100CD00019FFB14BB14A8C21AE4800F013FFB04B65
:100CE000AE4A9021AB4800F00DFFA84BAD4A402121
:100CF000A84800F007FF2A686B68099800F0BAFB63
:100D000000239A4698467B68BFF35F8F00221A60E3
:100D100086F310884346002B51D1002800D126E1EC
:100D200000F040FB02000B1EC7DB002000210690F4
:100D300007917868EFF3108672B601680029FCD03D
:100D4000BFF35F8F396888464C7B002C32D0BAD015
:100D5000097B8C42B7D8944965182D01B9688C4637
:100D6000654428686968801A99410029C3DC01D16B
:100D70000028C0D10021404600F09AFDA042A8D131
:100D80002A686B6806920793AB689846EB689A46A8
:100D90004346002BA3D0002CA7D03B681B7B9C4272
:100DA000A3D8631EFA68D35C08931B02184338610A
:100DB0000020A8E700239A4698460020A3E7089B56
:100DC0001B022343994651461800C04705000E00F8
:100DD0007A68EFF3108B72B6136859424B41D9B25F
:100DE000002BF9D1BFF35F8F002E26DB002E52DDE2
:100DF0003B69002B53D04B4572D100F0D3FA02006F
:100E00000B1E73DB0100180052197341984202D87F
:100E100004D1914202D901225242D317002B6BDB3D
:100E20000021049101310391029451460191414600
:100E300000913800FFF778FE49E03B69002BD5D0E0
:100E40004B451CD1069A079B10001900521BB34159
:100E5000994202D804D1904202D901225242D317BA
:100E6000002B12DB002104910131039102945146C1
:100E70000191414600913800FFF756FE27E04B4BA9
:100E8000464A9F21434800F03DFE3D4B3D4A3F21ED
:100E90003D4800F037FE002E01D1002DA8D13A6860
:100EA000002C45D0537B9C422CD1012100293FD1FD
:100EB000D37B002B42D1D473002C52D03B681B7BD8
:100EC0009C424ED8FA68013C135D01331355002350
:100ED0003B617A68BFF35F8F13608BF310881FE765
:100EE000324B2E4AA2212B4800F00CFE244B254AFF
:100EF0003F21254800F006FE214B224A3F2122488F
:100F000000F000FE002C0DD0137B9C420AD8630039
:100F10001B19033B1068844663449B78002BC5D0A3
:100F20000121C3E7224B234A6821234800F0EAFD50
:100F3000224B234AF621204800F0E4FD002B0AD082
:100F4000117B8B4207D85900CB18033B11688C46A4
:100F500063445C70AFE7164B164A6821164800F0F0
:100F6000D1FD0A4B0F4A40210A4800F0CBFD0BB0DF
:100F7000F0BCBB46B246A946A046F0BD0C0400201A
:100F80000847001070480010244700100846001061
:100F9000A4480010C445001078470010884800108D
:100FA00090470010C8480010FFFFFF0F9C4700103B
:100FB0003C4600101049001058460010D847001059
:100FC000DC48001010B50A4B5B68002B04D00A21E6
:100FD0000848FFF7B9FC10BD054C2300064A102154
:100FE000206800F085FB03212000FFF7B5FCEEE749
:100FF000FC01002020060020C909001010B5064B96
:101000005B68002B01D0044810BD044B044A5C21EE
:10101000044800F077FDC046FC010020FC470010AA
:10102000B0480010C4450010F0B5DE4657464E46A5
:101030004546E0B58BB0804616001F00149B9A46CB
:10104000159B994616AB1B789B461F2302AA944614
:10105000634400221A7032E0002809D04246126828
:10106000127B904204D8421E4146C9688A5C48E01F
:10107000434B444A4021444800F044FD0798002B6C
:1010800075D05B46002B72D04946D04704000D0056
:1010900003000B4300D171E0002946DB00F082F928
:1010A00006000F1E55DB36196F41B94202D804D134
:1010B000B04202D901267642F717002F4FDB434694
:1010C0005A68EFF3108472B6136859424B41D9B293
:1010D0000791002BF8D1BFF35F8F1F3302AA94460C
:1010E000634404930023039302934B4601935346B6
:1010F000009332003B004046FFF716FD031EABD1C4
:10110000020041464968BFF35F8F00250D6084F3FC
:101110001088002B29D01F2302A98C4663441B781A
:10112000002BABD112021043A9E732003B00361B63
:10113000AF41BB4202D804D1B24202D90126764265
:10114000F717002FBBDA114B114A3F21114800F06D
:10115000D9FC0E4B0E4A3F210E4800F0D3FC0B4B3E
:101160000B4A3F210B4800F0CDFC012040420BB060
:10117000F0BCBB46B246A946A046F0BD0798F6E7CC
:1011800008460010C8480010C44500100847001069
:101190007048001024470010F0B587B006000F001B
:1011A000FFF761F800281FD106246442E517A4194F
:1011B0007D41BD4202D803D1B44201D900240025AB
:1011C000002D14DB0494059500F0ECF802000B1ED2
:1011D00013DBA41A9D41002D17DC14D03000390018
:1011E00000F0ECF807B0F0BD234800F025FD234BDC
:1011F000234A3F21234800F085FC204B204A3F2111
:10120000204800F07FFC002CE8D0FFF7F7FE002319
:10121000029301931C4B0093049A059BFFF704FF74
:10122000002818DADAE7002300E00023002BD5D1EC
:10123000164B1A68EFF3108172B61368002BFCD0BE
:10124000BFF35F8F114B1B68BFF35F8F00221A60E3
:1012500081F3108820BF0499059A0D4B5B6A9A426E
:10126000E3D80B48806A884203D29A42DBD001233C
:10127000DCE70123DAE7C0462048001008470010E9
:101280007048001024470010990900102006002023
:1012900000400540F8B504000D0000F083F802009E
:1012A0000B1E10DB20002900801859418B4202D808
:1012B00004D1824202D901204042C117002908DB33
:1012C000FFF76AFFF8BD064B064A3F21064800F0CB
:1012D00019FC034B034A3F21034800F013FCC046AE
:1012E00008470010704800102447001010B5FA227B
:1012F00092000023002102F0BBFDFFF7CBFF10BDE1
:1013000070B5EFF305833F2018401038EFF3108CD1
:1013100072B6194B1B68002BFBD0BFF35F8F012304
:1013200019008140154A5163154A12781400C440CF
:10133000234214D0114B5C6A8300124D5B599C42CE
:1013400006D38300104C1B598A430D490A7007E0ED
:101350000A4A031D9B0099589950002300E000237E
:10136000BFF35F8F044A002111608CF31088002BBB
:1013700000D0984770BDC046280100D0004005400D
:10138000420A0020240600208C03002010B5010032
:10139000024A0348FFF78EF810BDC04634490010DA
:1013A000400A0020044B5B6A034A906A1900536AA2
:1013B0009942F9D17047C04600400540084B5B6A2E
:1013C00001E0074B5B6A8B42FBD301E0044B5B6A95
:1013D0008B4203D1024B9B6A8342F7D37047C046CE
:1013E0000040054070B504000D00EFF3108672B6A2
:1013F0001B4B1B68002BFBD0BFF35F8F002D1CD055
:101400002000FFF715F9174B83420BD0190020007D
:10141000FFF716F901212000FFF702F90123A3408D
:10142000114A1360A400114BE550BFF35F8F0C4BC2
:1014300000221A6086F3108870BDA2000B4B0021B9
:10144000D1500122A2400A490B7893430B70054901
:101450002000FFF71FF900212000FFF7E1F8E4E783
:10146000280100D001130010386005408C030020D3
:10147000420A0020F0B5DE4600B584B00400150035
:1014800001921E000293FFF78DFF03958E4202D852
:101490004ED185424CD9EFF3108B72B6274B1B68A7
:1014A000002BFBD0BFF35F8F254A17780125A5409D
:1014B000EBB23B431370234B5D63221D92000199F5
:1014C000D150A2002049029850501B6A2B4212D1E1
:1014D0001C4B1B6C2B4208D00020BFF35F8F174BB7
:1014E00000221A608BF3108823E0184B184AC121A0
:1014F000184800F007FBFFF755FF8E4214D802D1C1
:10150000039B834210D80E4B1B78BB420ED00D4B71
:101510001D625D631F2004400123A3400E4A136037
:10152000074B1F701E38D8E70020D6E70120D4E70C
:10153000012004B080BCBB46F0BDC046280100D0ED
:10154000420A0020004005402406002058490010AF
:10155000CC4900107C49001080E200E0EFF3108CD1
:1015600072B60B4B1B68002BFBD0BFF35F8F0123C0
:101570008340084A136208490A789A430A70BFF305
:101580005F8F034B00221A608CF310887047C046AF
:10159000280100D000400540420A002010B5002973
:1015A0001ED0037B99421BD84B005B18033B046899
:1015B000A4466344002919D0002A1DD0914221D0AD
:1015C000002A25D0047BA24222D80468500080184B
:1015D000033820188170197800291FD11A7010BDA6
:1015E000104B114A6821114800F08CFA104B114A37
:1015F0006F310E4800F086FA0F4B0E4A70210B48EF
:1016000000F080FA0D4B0B4A7121084800F07AFA7D
:10161000044B054A6821054800F074FA41701A70BD
:10162000DDE7C0463C460010E04A00105846001076
:10163000B0460010CC4A0010BC460010C84600104E
:1016400070B506000D001400002914D0002A14D033
:10165000806873689847002806D02200290030006F
:10166000FFF79CFF280007E02A0021003000FFF769
:1016700095FF200000E0100070BD0800FCE70000AE
:1016800010B50023437301338373037BC3730123BA
:10169000027B9A4214D9002B0CD0027B934209D8CA
:1016A0005A00D218033A01688C4662440133DBB217
:1016B0005370EDE70B4B0C4A68210C4800F022FAFE
:1016C000002A09D0924207D8016853009A18033AB9
:1016D0008A180023537010BD024B034A6821034847
:1016E00000F010FA3C460010E04A00105846001086
:1016F00010B5017342608360FFF7C2FF10BD0000A8
:1017000070B50400081E00D170BD002934D0237BC1
:10171000994231D84B005B18033B226894466344DE
:101720005A78002AF0D02DD0237B9A422AD8530031
:101730009B18033B21688C4663445D7800215970F7
:10174000002825D0237B984222D843001B18033B56
:1017500021688C4663440021597001002000FFF786
:101760006FFF060029002000FFF7CAFF02003100CA
:101770002000FFF765FFC7E7084B094A68210948C1
:1017800000F0C0F9054B064A6821064800F0BAF996
:10179000024B034A6821034800F0B4F93C460010AC
:1017A000E04A00105846001070B505000C00160005
:1017B000002928D02DD0037B99422AD84B005B18F2
:1017C000033B0268944663445A78002A27D19A78EA
:1017D000002A2AD11978FFF793FF0300002E03D0C7
:1017E000EA7B002A27D1EC73002B37D1002C49D09B
:1017F0002B7B9C4246D82B6861000C19033C1C19BA
:101800000023637070BD224B224A3821224800F029
:1018100079F9224B224A6821224800F073F9224BC1
:101820001C4A3A211C4800F06DF9204B194A3B2113
:10183000194800F067F9002A0AD0297B8A4207D8A4
:1018400051008A18033A29688C4662445470CAE7EA
:10185000124B134A6821134800F054F9002B0BD0A7
:101860002A7B934208D843001B18033B2A689446FE
:10187000634400229A70B9E7084B094A6821094875
:1018800000F040F9054B064A6821064800F03AF995
:10189000E8490010B84A0010F04900103C4600101A
:1018A000E04A001058460010344A00105C4A00100C
:1018B00070B504000A00457B2900FFF775FF6073CF
:1018C000280070BD70B50400002967D0437B8B42AF
:1018D0000ED0002911D0037B99420ED84B005B1823
:1018E000033B0268D0188378002B0CD1002056E00F
:1018F0000121FFF7DDFF012051E0294B294A682132
:10190000294800F0FFF8002B20D0227B93421DD8FD
:101910005A00D318033B2268D2182568EB5C8B422F
:101920001AD0002B1BD0227B934218D85A00D31810
:10193000033B2268D21853788B4216D0002BF0D18B
:101940001A4B1B4A67211B4800F0DCF8144B154A60
:101950006821154800F0D6F84378137007E0104B63
:10196000104A6821104800F0CDF8437853700023E6
:101970008370437001222000FFF716FF0200617B95
:10198000814205D02000FFF75BFE6073012006E076
:10199000094B074A6D21074800F0B4F8002070BDDC
:1019A0003C460010E04A0010584600102845001040
:1019B000A04A0010F0490010804A001010B5040041
:1019C000FEF7ACFD01002000FEF7BEFFFF232371F0
:1019D000BFF35F8F10BD10B50400FEF79FFD01003F
:1019E0002000FEF7B1FFFF23237100236371BFF3D3
:1019F0005F8F10BD70B504000D00062000F036FAB0
:101A0000C000290001F0F0FBC60908D00E4B9E4231
:101A100017D87F23184001303500460800E0012523
:101A20006562A6622C348020800104430023236079
:101A3000062000F01BFA8000A901891901F0D4FBEF
:101A400070BD0026014DEBE7FEFF0000FFFF000028
:101A5000002909D00A22064B9C4660444342584163
:101A60004000044BC252704780225200F3E7C04648
:101A70000080FCBF3406002070B505000C00062075
:101A800000F0F4F9002829D0164B9D4227D080227F
:101A9000D203154B1A60154B1A60154B9B68110049
:101AA0009943FAD100212800FFF7D2FF2100280036
:101AB000FFF7A0FF2C002C34E96A60224A406E2117
:101AC000114080225201224311600A4B2B63802374
:101AD0009B01234310221A600323AB6470BD802254
:101AE0001204D6E70080034000E0004000F0004010
:101AF00000C000400103000000BEFDE710B5FFF785
:101B0000FBFF000010B582B00C001900002A0CD0B9
:101B1000084B002A0BD001920093230002000648D4
:101B200002F094FB0120FFF7E7FF044BF1E7034AC3
:101B3000F1E7C046904B0010A04B0010244300106A
:101B400070B52B4B2B4A1A602B4B2C4A1A602C4B2E
:101B50009A682A4B9343FAD12A4C01E008CC984763
:101B6000294B9C42FAD300F001F9234B274A1A6013
:101B7000234B9B68DB43DB01FAD1254B40229A675C
:101B80005A671A67DA66234C09E0234B234A8321FC
:101B90002348FFF7B7FF2000FFF710FF0834214B61
:101BA0009C4209D22368002BF5D0012BEDD12000F7
:101BB000FFF711FF0834F2E71B4CA1681B4DC02250
:101BC000280002F015FAA560FEF74DFB002800D0B2
:101BD00000BEFEF793FCFEF7A9FEFFF7F3F9144CE5
:101BE00001E008CC9847134B9C42FAD370BDC04625
:101BF00000E00040BFCDFBFE00F00040FE7F3C0057
:101C000000C000405802002068020020FFFFFF01D2
:101C100000F0014050020020D04B0010544C001046
:101C2000F04B00105802002000ED00E00000002002
:101C3000680200206C0200200FB400B583B0084891
:101C400002F0D2FA049B002B07D005A901911800DD
:101C500002F0DAFA034802F0C7FA0120FFF74CFF5E
:101C6000404C0010504C0010F8B5DE4657464E462A
:101C70004546E0B505000F0092460A9A93424ED3BE
:101C80001A0E91461E020A9A00233000494601F0BE
:101C9000EDFA80466C006419A4002F4B9C46644406
:101CA0006368834200D260602B1FDBB29B46012B2E
:101CB0003BD9C0239B012343802212011A60AB0051
:101CC000264A9958002905D0506901F08DFA013053
:101CD0000138FDD153465A0123685A40E0231A4087
:101CE00080235B0123431A605A46012A28D98023A6
:101CF0009B012343802212011A60434663604246DF
:101D000000233000494601F0B1FAAD00134B5851A1
:101D10000120F0BCBB46B246A946A046F8BD104B18
:101D2000104A2D211048FFF7EDFE012FC1D1C0232D
:101D30009B01234303221A60A368DB07FCD5C9E794
:101D40002168794003220A401A60A2680123BB403F
:101D50001342FAD0CBE7C046008000409C0300202D
:101D6000644C0010C84C0010784C001030B583B0A3
:101D70000C2000F021F9FEF7B7FB00280DD000235E
:101D800004E099002D4A2E4888500133092BF8D9D8
:101D90002A4B2C4A5A6203B030BD2B4B00229A6763
:101DA00000F012F9294B01221A60274B5B6C012BC2
:101DB000FBD1274B03221A60234B9B6B012BFBD1DA
:101DC000013300930433234A0121234800F054F8DF
:101DD00005230093214A0121214800F04DF8214BB1
:101DE0000093002202210420FFF73EFF1E4D0095C4
:101DF0002B00002201210520FFF736FF104C009434
:101E00002300002200210720FFF72EFF009423006B
:101E1000002200210820FFF727FF0A4B0093230030
:101E2000002200210920FFF71FFF00952B00002250
:101E300000210620FFF718FFADE7C0469C030020F5
:101E4000006CDC021BB70000008000403CB000408A
:101E500030B00040002F685900800240008C864757
:101E600000C00240001BB700405973078000014BBF
:101E7000C05870479C030020F0B5C64600B504006A
:101E80000F0090461D000C2001F0AEF906003D4AFF
:101E900042443D4B9A4243D843011B1A9901C91A47
:101EA000C90009188901404601F09EF90200103A64
:101EB00098235B009A4239D86B1E062B3CD8069BB0
:101EC000013B062B38D8069B9D423BD343461A095B
:101ED000B2423DD32D04069B1E0335432368002BDD
:101EE0003CDB2A4B9C424AD080225201284B1A608C
:101EF000284B1A60284B9B6811009943FAD1276040
:101F0000A060231DC02292011A432123136023687D
:101F1000002BFCDAE5600823136080BCB846F0BDF6
:101F20001E4B1F4A11211F48FFF7ECFD1E4B1C4A98
:101F300019211C48FFF7E6FD1C4B194A1C211948C2
:101F4000FFF7E0FD1A4B164A22211648FFF7DAFD8B
:101F5000184B134A25211348FFF7D4FD22683F236D
:101F60001340BB42BDD1A3681B051B0D8342B8D1F2
:101F7000E368EE22D2021340AB42B2D1CDE7802219
:101F80009201B3E780E84BD380F8A93200C0024049
:101F900000E0004000F0004000C00040D84C0010BD
:101FA000204E0010384D0010844D0010A04D001040
:101FB000EC4D0010044E001080239B000343014AA7
:101FC000D362704700800540064BAA2212011A60B6
:101FD0002F22DA60044B054A1A60024B5B68002B23
:101FE000FBDA7047004002400060024000B0FA0097
:101FF000704710B5002802D00B684968984710BD9B
:102000000100002007E083001B185B00501C0860E3
:102010001078C01830380A681378303BDBB2092BCF
:10202000F1D97047F0B5DE4657464E464546E0B515
:1020300083B093461F000C9B9A460D9C0E9B9946BD
:102040000F9B9B0703D0B8460F00060022E00192C9
:10205000A34688464E46B9460700B44207D2551CEF
:102060004B4641462020B84701342A00F5E73D00A1
:102070004F465C46019B9B46B1464646B8463700F4
:102080002E0007E0013C551C5346185D43463900BD
:10209000B0472A00002CF5D135003E0047460F9B83
:1020A0009B0707D4100003B0F0BCBB46B246A9465C
:1020B000A046F0BDB0464E46B9462F005D46531BC4
:1020C000B342EFD2541C4B4641462020B847220071
:1020D000F5E7F0B5CE46474680B585B094469846BC
:1020E0000C9D0D9C0EAB1B789946109A119B129E6D
:1020F000B7071CD4002B0CD0F7070AD54F46002F8A
:1021000002D10C37374204D0013B02E030272F5573
:102110000134944201D21F2CF8D9F70707D59C420D
:1021200005D21F2C03D830272F550134F5E7F706C9
:1021300015D5770505D4002C03D0944224D09C42B9
:1021400022D00F9A102A2BD00F9A102A30D00F9A33
:10215000022A35D01F2C02D830222A5501341F2CD8
:1021600005D84A46002A31D02D222A55013403963B
:1021700002930194009543466246FFF753FF05B072
:10218000C0BCB946B046F0BD621E012C06D00F9F00
:10219000102F01D01400D4E7023CD2E71400D0E79E
:1021A000B206D1D41F2CCFD878222A550134D1E7DA
:1021B000B206CCD51F2CCAD858222A550134C9E7FB
:1021C0001F2CC7D860322A550134C3E7720703D5E4
:1021D0002B222A550134CAE73207C8D520222A55B6
:1021E0000134C4E7F0B5DE4657464E464546E0B5F5
:1021F00093B081468A46089209931CAB10CB1B789A
:102200009B461E9D219B9846002C03D110234246DD
:102210009A4390468023DB0046461E4042461A42BF
:1022200012D0002C22D000260EE03033D9B2771C19
:102230000AAB99552900200000F0D6FFAC4216D316
:102240001F2F14D83E0004002900200000F0CCFF0E
:10225000CBB2092BE9D94246920605D54121C918CE
:10226000C9B20A39C9B2E2E76121F8E7270043465B
:102270000693209B05931F9B049303955B46029353
:1022800001970AAB0093099B089A51464846FFF70D
:1022900020FF13B0F0BCBB46B246A946A046F0BD35
:1022A000F0B5DE4657464E464546E0B595B0089037
:1022B00009910A920B931E9E1F9C20AB1B789B4694
:1022C000229B9946239D269B9A463300234303D1A4
:1022D000103352469A4392468023DB0057461F40F4
:1022E00052461A4219D0330023432DD0002714E060
:1022F0003033DAB27B1C98460CABDA554A462B00D9
:102300003000210000F0B2FFA5421FD819D043468B
:102310001F2B1BD8474606000C004A462B003000F6
:10232000210000F0A3FFD3B2092BE1D95246920657
:1023300005D54122D218D2B20A3AD2B2DAE76122E6
:10234000F8E7B145E3D901E00023984653460693E8
:10235000259B0593249B04934B4603935B46029372
:10236000434601930CAB00930B9B0A9A099908987A
:10237000FFF7AFFE15B0F0BCBB46B246A946A0467B
:10238000F0BD0000F0B5DE4657464E464546E0B586
:1023900091B083468A460C9298461A9C08941B9DDD
:1023A000099522002B002000290001F0EEF90028F9
:1023B00000D0E5E001225242D74B2000290001F075
:1023C000DFF9002800D0DBE001225242D34B20008D
:1023D000290001F0BFF9002800D0D1E0002200233D
:1023E000089E3000099D290001F0B4F9002800D0B2
:1023F000DDE008980999069007918023DB001E9A7A
:102400001A400D921E9A1A4201D106231C93069877
:10241000079904000D000A000600024300D1D1E034
:10242000080D4005400DBE4CA44660440A03120B43
:10243000BC4B13431F0001F0BBF9BB4ABB4B01F07F
:1024400046F9BB4ABB4B01F01BF904000D0000220A
:10245000B94B3000390001F00AF9B84AB84B01F025
:1024600036F902000B002000290001F009F901F003
:10247000B7F9814601F09CF904000D00B14AB24B56
:1024800001F025F90022B14B01F0FAF801F0A8F9AA
:102490000600AF4AAF4B2000290001F018F90400F4
:1024A0000D00300001F084F9AB4AAC4B01F00FF99C
:1024B00002000B002000290001F0D9F804000D00F3
:1024C00002000B0001F003F90A900B91A44BF318E2
:1024D00000261F0522002B002000290001F0D0F863
:1024E0000E900F9122002B0000208021C90501F0E1
:1024F000BEF804000D0000229A4B0A980B9901F0D7
:10250000C8F80022984B01F0BBF802000B000A98B3
:102510000B9901F0BEF80022944B01F0B1F80200D3
:102520000B000A980B9901F0B4F802000B00200090
:10253000290001F0A5F802000B000E980F9901F098
:10254000A8F80022774B01F09BF832003B0001F025
:10255000BEF806000F0004000D00069A079B01F06C
:102560000FF9002830D001235B429C46E144002251
:102570007D4B3000390001F08CF804000D0023E0A1
:102580001E9B04931D9B03931C9B0293089A099B1B
:102590000092019343460C9A5146584600F0FCF8CD
:1025A00011B0F0BCBB46B246A946A046F0BD002320
:1025B000002406930794069680231B069C466544D8
:1025C00007951AE7002399464B466333C62B1ED85E
:1025D00004261E9B1B0526D52B0023430FD0644ADF
:1025E000644B0698079901F0C3F8002879D00022BF
:1025F000614B0698079901F0ADF8002871D01C9B3B
:102600004B4506DD4A46981A431E1C9303E00526F7
:10261000DFE700231C938023DB001E9A1A431E92DF
:102620000026002399461D9B9E4264D29F1B0223D5
:102630001E9A1A400A921E9A134202D0002E00D00F
:1026400000274B46002B07D022002B000698079945
:1026500001F01FF8069007910022002308980999BD
:1026600001F078F8002848D1444B1E9A1340049397
:1026700003971C9B0293069B079C0093019443467F
:102680000C9A5146584600F087F8002E00D187E793
:102690001E9B9B063DD54525441C434602005146E2
:1026A0002800D8474B46DA179B185340052205925D
:1026B000013E0496002203920A3202924A46D00F4B
:1026C000019000934346220051465846FFF78AFD89
:1026D0000A9B002B00D163E702005F460C9E1D9D04
:1026E00054E01C9B002B9ED00D9B002B9BD01C9B71
:1026F000013B1C9397E7002799E7069C079D220062
:10270000290080200006844661440B00069207934E
:10271000AAE76525C0E7C046FFFFEF7FFFFFEFFF99
:1027200001FCFFFF0000F03FFB799F501344D33FB3
:10273000B3C8608B288AC63F0000F83F61436F63CF
:10274000A787D23F71A379094F930A400000E03F69
:102750001655B5BBB16B0240EF39FAFE422EE63F8B
:10276000FF03000000002C4000002440000018403F
:102770002D431CEBE2361A3F80842E41FFF7FFFF0A
:10278000541C434651462020B8472200931BAB42BD
:10279000F6D3100004E7C046F0B5DE4657464E4675
:1027A0004546E0B595B00690079193469946209F1F
:1027B0001E9A1F9B1000190000F0E7FF002831D17E
:1027C00001225242BF4B1E981F9900F0C3FF002800
:1027D00037D101225242BC4B1E981F9900F0D0FF06
:1027E00000283DD10022B94B1E981F9900F0C8FF68
:1027F000002850D10022B64B1E981F9900F0AAFF66
:10280000002848D1002200231E981F9900F0A2FF43
:10281000002850D100239846229B5B0500D4B6E0E7
:10282000002458E0229B0393219B029303230193EE
:10283000A84B00934B465A4607990698FFF7F2FBC0
:102840000EE1229B0393219B029304230193A24B4D
:1028500000934B465A4607990698FFF7E3FBFFE0C3
:102860000423229A1A4022990B4210D09B4B002A33
:102870000FD0042222990391219902910192009391
:102880004B465A4607990698FFF7CCFBE8E0944B75
:10289000EDE70322EEE7229B0493219B039302972B
:1028A0001E9B1F9C009301944B465A46079906981D
:1028B000FFF768FDD4E01E9A1F9B0020002100F066
:1028C000D6FE1E901F9101239846A5E70CAB30223F
:1028D0001A55013F01341F2C01D8092FF6D81E9834
:1028E0001F9900F07DFF050000F062FF02000B0061
:1028F0001E981F9900F0BBFEFA007A4B9B181A68CD
:102900005B680A920B9300F0E2FE0890099100F0D8
:102910008BFF060000F048FF02000B0008980999A1
:1029200000F0A5FE0890099100226F4B00F028FFEF
:1029300000282ED00136300000F036FF02000B00D8
:102940000A980B9900F00CFF002801D001350026F1
:10295000002F2CD1280000F02BFF02000B001E9846
:102960001F9900F084FE06000F0000225E4B00F06D
:10297000F1FE002846D100225B4B3000390000F008
:10298000FFFE00283ED1EB073CD501353AE0062793
:1029900046E70022544B0898099900F0DBFE002816
:1029A000D6D1002E01D0F307D2D50136D0E7AA4602
:1029B0001F2C11D8013F0A21300000F015FC651CC6
:1029C00030310CAB19550A21300000F00DFC092EF6
:1029D0000ED906002C00EBE755461F2C0CD87B1EA9
:1029E000002F09D00CAA302111551F000134F4E743
:1029F0002B0055461C00F0E71F2C03D80CAB2E22F1
:102A00001A5501341F2C10D80A21280000F0C4FBED
:102A1000661C30310CAB19550A21280000F0BCFBB4
:102A2000051E01D03400EDE734000323229A134041
:102A3000012B1CD01F2C06D84346002B32D00CABE8
:102A40002D221A550134229B0393219B029301945A
:102A50000CAB00934B465A4607990698FFF7E2FAEB
:102A600015B0F0BCBB46B246A946A046F0BD219BBE
:102A7000002B13D04346002B02D10C3313420FD04E
:102A8000219B013B2193190003E00CAB30221A5526
:102A900001348C42CED21F2CF7D9CBE72199F8E72D
:102AA0002199F6E7229B5B0704D50CAB2B221A5524
:102AB0000134C8E7229B1B07C5D50CAB20221A5551
:102AC0000134C0E7FFFFEFFFFFFFEF7F65CDCD4192
:102AD00065CDCDC1384E00103C4E0010304E001078
:102AE0002C4E0010285000100000E03FF0B5DE46EC
:102AF00057464E464546E0B593B082468B469046D3
:102B00001193002900D1EBE200275546119B18785C
:102B1000002800D1E7E2252809D07C1C43463A0072
:102B20005946A847119B013311932700EEE7013363
:102B300011930024119A11780B00203BD8B2102871
:102B400003D88300D048C3589F460B00303BDBB20C
:102B5000092B2CD92A292FD000230A93119B1A78EC
:102B60002E2A39D000239A46119A1378683BD9B29D
:102B7000122976D88B00C549CB589F4601231C43A8
:102B800001321192D6E702231C4301321192D1E7A0
:102B900004231C4301321192CCE708231C43013269
:102BA0001192C7E710231C4301321192C2E711A80A
:102BB000FFF726FA0A90D1E71C9B1A1D1C92186891
:102BC000002804DB0A90119B01331193C6E702230E
:102BD0001C4343420A93F6E78022D20014435A1C56
:102BE00011925A781300303BDBB2092B04D92A2A00
:102BF00007D000239A46B7E711A8FFF701FA8246EB
:102C0000B2E71C9B1A1D1C921868002804DB824640
:102C1000119B01331193A7E70020F8E780235B00A5
:102C20002343511C119152786C2A01D01C0018E0EA
:102C3000C0239B001C430131119112E080232343E8
:102C4000511C11915278682A01D01C0009E0C02360
:102C50001C430131119104E080235B001C430132CD
:102C60001192119B18780300253BDAB2532A00D940
:102C70002CE29300864AD3589F4680239B001C4336
:102C800001321192EDE780235B001C430132119267
:102C9000E7E7782809D0582838D06F2838D062283C
:102CA00038D010239C430A2600E01026582833D041
:102CB000692803D0642801D00C229443630501D510
:102CC0000122944369282AD0642828D0A30500D57E
:102CD0009FE0E30500D5B8E0630600D4CAE01C9A83
:102CE000111D1C911168FF220A4005940A9B049350
:102CF00053460393029600230193009243463A0001
:102D000059462800FFF76EFA070027E01026CDE7A6
:102D10000826CBE70226C9E720221443C8E7A3050B
:102D200020D4E30550D4630666D51C9A111D1C916E
:102D30001168FF220A40D317D118594005940A9B05
:102D40000493534603930296D20F01920091434697
:102D50003A0059462800FFF745FA0700119B013356
:102D60001193D3E61C9BDA1D07218A431100083119
:102D70001C91116853689C46DB170C930D930C9AB9
:102D80000D9B100048400E90624653400F930E98E2
:102D90000F990C9A0D9B801A99410E900F910894EF
:102DA0000A9B0793534606930496002305936346B4
:102DB000DA0F02920090019143463A0059462800EA
:102DC000FFF76EFA0700C9E71C9A111D1C911268E3
:102DD000D317D118594005940A9B04935346039383
:102DE0000296D20F0192009143463A0059462800BC
:102DF000FFF7F8F90700B1E7230605D51C9A111D66
:102E00001C910023D25E96E71C9A111D1C9112683A
:102E100091E71C9BDA1D07218A43110008311C91A0
:102E200008940A9B07935346069304960023059340
:102E30000293136854680093019443463A0059463C
:102E40002800FFF72DFA070088E71C9A111D1C9136
:102E500005940A9B0493534603930296002301931F
:102E60001368009343463A0059462800FFF7BAF921
:102E7000070073E723060DD51C9A111D1C911268DB
:102E80001204120C31E7C046444E0010884E001068
:102E9000D44E00101C9A111D1C91126825E746287B
:102EA0001AD01C9B0733072293431A0008321C9246
:102EB00004940A9A0392524602925C681B6800933B
:102EC000019443463A0059462800FFF765FC070085
:102ED000119B0133119319E620231C43E1E7672876
:102EE00001D0472802D180231B011C43452801D073
:102EF000472801D120231C431C9B073307229343FF
:102F00001A0008321C9204940A9A039252460292C2
:102F10005C681B680093019443463A0059462800B8
:102F2000FFF730FA0700119B01331193EEE50223FE
:102F30001A002240924623421FD001241C9B1A1DD6
:102F40001C927A1C9146187843463A005946A84785
:102F50005346002B16D1119B013311934F46D5E5F3
:102F6000561C434659462020B847230032005C1CBB
:102F70009D42F5D83D001700E0E701233A002F00FD
:102F80000A9DF4E74A46A9460A9D06E0571C4346B7
:102F900059462020C84734003A00661CA542F5D89F
:102FA0004D469146D7E71C9B1A1D1C921B689946FB
:102FB0005346002B00D1013B4E4601E00136130081
:102FC0003278002A02D05A1E002BF7D14B46F21A53
:102FD00010928023DB0026001E401C4203D0524585
:102FE00001D95346109302231A0022400B92234228
:102FF00005D03A0037004C46A946554620E03A0035
:10300000109B5F46B3462E0006E0551C4346390030
:103010002020B04723002A005C1C0A999942F4D86A
:1030200035005E46BB46109437004C46A9465546CF
:1030300006E01D000134561C43465946C84732007D
:103040002078002804D0002FF4D06B1E002DF0D182
:1030500017004D460B9B002B03D1119B013311939D
:1030600054E50A9F109B06E0561C43465946202013
:10307000A847230032005C1C9F42F5D81700ECE7FC
:1030800021231C431C9B1A1D1C921B680093059452
:1030900008230493534603931023029300230193C0
:1030A00043463A0059462800FFF79CF80700119B59
:1030B000013311932AE57C1C43463A0059462520EA
:1030C000A847119B0133119327001FE57C1C434641
:1030D0003A005946A847119B01331193270015E583
:1030E0000A4B9A4610E5AA46474502D343465A1E64
:1030F00000E03A00434659460020D047380013B05C
:10310000F0BCBB46B246A946A046F0BDF11F001078
:1031100000B585B0029003910121009313004A424B
:1031200002A90248FFF7E2FC05B000BDF31F001042
:1031300001480421014B1847300200206131001082
:1031400010B5010018231B8814221088984710BD61
:1031500010B5010018231B8816221088984710BD4F
:10316000F0B5C64600B507000E00002501239846BD
:1031700000E00135B5420AD2AC003C192068FFF7E7
:10318000DFFF20600028F4D100239846F1E7404695
:1031900080BCB846F0BD0000124A936F9B0815D260
:1031A0009066D166002905D0FFE7FFE7FFE7516F82
:1031B000106F704704B580210906C21751400028DE
:1031C00000D0C84301F090F8002104BDF0B5146EA2
:1031D000556E576F166FFFF7E3FF14665566576716
:1031E0001667F0BD000000D0114A936F9B0813D200
:1031F00010665166002905D0FFE7FFE7FFE7516F32
:10320000106F704704B5002801D00020C04301F0C2
:103210006BF8002104BDC046F0B5146E556E576FB3
:10322000166FFFF7E5FF1466556657671667F0BD22
:10323000000000D094464E4A926F9208624601D236
:1032400030E0C046F0B54A4EB56F6D08FCD3346E21
:10325000756E776F366F00F025F89446444A146611
:103260005566576716676246F0BDC0469446404AA9
:10327000926F9208624601D258E0C046F0B53C4ECB
:10328000B56F6D08FCD3346E756E776F366F00F0D6
:103290004DF89446364A1466556657671667624677
:1032A000F0BDC046002B24DB11D000293EDA00B56A
:1032B000C943404200D1013100F038F8C9434042CF
:1032C00000D10131DB43524200D1013300BD002A5D
:1032D000EBD1002801D1002905D00020C90FC90772
:1032E00001D1C043410800B500F0F6FF00220023E1
:1032F00000BD00B500290ADBDB43524200D1013397
:1033000000F014F8C943404200D1013100BDC94367
:10331000404200D10131DB43524200D1013300F081
:1033200005F8DB43524200D1013300BD002923D10F
:10333000002B18D1002A0CD0BC460D4F38667A6697
:1033400000210023FFE7FFE7FFE77A6F386F67464A
:103350007047002801D00748010000B500F0BCFF0D
:103360000022002300BD02000B0000200021704756
:10337000000000D0FFFFFFFF002B00D0BFE0130CC8
:1033800028D1002AE7D080B4114F39667A66FFE76A
:10339000FFE730B4040C7B6F396F1B0423433B669B
:1033A0007A66FFE7FFE7FFE7C04684B27B6F3D6FB9
:1033B0001B0423433B667A66FFE7FFE7C046002312
:1033C0002C042D0C7A6F386F00196941B0BC70471E
:1033D000000000D0F0B594460025140E01D1120271
:1033E0000835140F01D112010435940F01D1920058
:1033F0000235D40F01D152000135D40B0134254FD1
:103400007C66254C3C660E0C93B2FFE7FFE7FFE7B6
:103410003C6F6643360C7703BE467343DF0B5B0499
:10342000C01AB941130C7343DB18C91ACE0866439E
:10343000360CB64493B273431F0F1B01C01AB94137
:10344000130C73431F0B1B05C01AB941860D8F0265
:103450003E436643360C092D24DB520A7243801A20
:103460007703460A6643360C16235B1BDE40DF40BB
:10347000BF1964466643821B70460435063301005B
:10348000D940A840C01900D30131A24206D200237E
:10349000F0BD0000000000D0FFFFFFFF121B013055
:1034A000F3D3F1E709277F1BFE406446A2B27243C3
:1034B000801A00D20139220C7243130C1204821AB2
:1034C00099410B007046043513370100F940A840BC
:1034D000801900D30131002B02D1A2420AD2F0BDE3
:1034E000013000D30131121BFAD2013BF8D1A242C4
:1034F00000D2F0BD013000D30131121BF7E7F0B567
:103500001C0C00D080E00CB400251C0A04D11B0266
:10351000160E3343120208351C0B04D11B01160F83
:103520003343120104359C0B04D19B00960F3343A7
:1035300092000235DC0B02D192185B4101351C0070
:10354000971864410134464F7C66464C3C660E0C2D
:10355000FFE7FFE7FFE7C0463C6F6643360C7703A3
:10356000BE4697B27743C01B00D20139C01B00D2C0
:1035700001399FB27743C91BC91B170C77437E04DF
:10358000FF0B801BB941CE086643360C0C2D33DB94
:10359000B644120B1F053A431B0B97B27743C01B6F
:1035A00000D201399FB27743C91B170C77433E0401
:1035B0003F0C801BB941860D8F023E43664329278D
:1035C0007F1BFE400C3D7746AF40BF1930BCA2B216
:1035D000ABB272437343801A9941220C7243130CAD
:1035E0001204801A994102000B000137001BA94107
:1035F000F9D2781E0021F0BD0C277F1BFE407746D4
:103600007F0BAF40FF19E0E700245D1C07D0144F8B
:103610007D663966FFE7FFE7FFE7FFE73C6F95B29E
:103620009EB265436643401BB141150C1E0C6543B9
:10363000664336042F0C3E432D04401BB141994292
:1036400004D202000B0020000021F0BD01D1904205
:10365000F7D3801A994101349942F2D3F6E700007A
:10366000000000D0FFFFFFFF48404140484018B431
:103670001B4B5B68FC46019308BD04DF4339001017
:1036800018B4174B1B68FC46019308BD00DF4D3989
:1036900000109446134A926F920809D2624618B4F9
:1036A0000F4BDB68FC46019308BD0CDF053C0010A6
:1036B0000C4AF0B5146E556E576F166F6246FFF7E1
:1036C000EEFF084A1466556657671667F0BD18B4D2
:1036D000034B9B68FC46019308BD08DFA93A001024
:1036E0001C040020000000D0FFB550404240504074
:1036F00059404B40594000E0FFB5154F4C00640D58
:1037000003D0BC4204D10C0314D80020090D0905D4
:103710005C00640D03D0BC4204D11C030AD8002213
:103720001B0D1B0501264B4009D44B4003D58B4292
:1037300000D18242FFBD9942FCD19042FFBD0B43B4
:10374000DB1803431343F5D0C9434918FFBD0000FC
:10375000FF07000000B5FFF7CFFF804100BDC04666
:1037600000B5FFF7C9FF01D9002000BD012000BD51
:1037700000B5FFF7B9FF01D9002000BD012000BD51
:1037800000B5FFF7B1FF804100BD012040054A00B0
:10379000121804D85A00121801D8002070470120CE
:1037A00070470020704700000021002805D17047B5
:1037B000C1174840401AFAD0C90713B5064B1B6819
:1037C00098470CBC441CA2401005120B0349091B6E
:1037D00009051943114310BD1C0500201F040000FA
:1037E00010B54C00620D8023D218DB00D21A5B05A5
:1037F0007E2A10DD9E3A13DACC17090349081943D3
:103800005242D140640001341532202A05DAD040FA
:103810000843604310BD002010BD0846604310BD42
:10382000C80FC018013810BD18B4044B5B6AFC46C1
:10383000019308BD24DFB53D001000001C040020EA
:1038400070B513231C78012C14D0012C14DC022C2D
:1038500002DC1F4A1F4B9A641F48FFF771FC1F4B85
:10386000186070BD99001A481A4A885001331F2BFE
:10387000F8D9EAE70023FAE71948FFF769FC0500E1
:103880001848FFF765FC023803789B007F2B19DD91
:10389000802229000F4800F0ABFB022CD7D1124B3D
:1038A0001A88B5231B029A4209D1104B1A88104B73
:1038B0009A4204D10F4B1A880F4B9A42C7D000206E
:1038C000FEF7BAF90D4B0E4A32210E48FEF71AF9EF
:1038D000093900101C0400204C3300001C05002096
:1038E000534400005346000054380000D83800000C
:1038F000494600009C3800005946000078500010EE
:103900002C510010D850001007B56046002800D197
:1039100000BE01880A0A0230DF2AFAD1C9B2820841
:1039200004D3028840880004104300E00068024A83
:103930005050039007BD00001C0400200FB403BCCE
:103940000CBCF0B50124E407634000E0F0B50C0DB9
:10395000CF0F661E3605891B640503D3C943404259
:1039600000D30131640D03D0661CF60A07D0E41BB6
:1039700000207F00791C89078912803C24031D0DDB
:10398000DF0F6E1E36059B1B6D0503D3DB435242D2
:1039900000D301336D0D03D06E1CF60A07D0ED1B6A
:1039A00000227F007B1C9B079B12803D2D032F1B59
:1039B000661B58D4A446202E46DA20371400BC409B
:1039C0001D00BD40F24033412A4380185941CB0FBE
:1039D00005D0C943C0430022644250415141624670
:1039E0004D0D28D10D0D07D100281FD024194041BD
:1039F0004941013A0D0DF9D0640006D3013000D3DE
:103A00000131002C01D140084000013A0BD4941C34
:103A1000E40A04D112051144DB071944F0BDD907AB
:103A2000204B194300E0D9070020F0BD0029DDD16B
:103A3000002CDBD1F0BD0132C6074008CD0728437A
:103A40004908002EE1D0D9E73C2E29DA203E403744
:103A50001400BC4000D00124F24014431A00BB40C3
:103A60001C43D317ACE7AC46202F08DA20360400FD
:103A7000B4400D00B540F84039412843A5E73C2F3C
:103A80000CDA203F40360400B44000D00124F84056
:103A900004430800B1400C43C117EAE710001900C5
:103AA000002494E70000F07FF0B50C0D661E36058B
:103AB000891BE60A6405640D02D0651CED0A04D07A
:103AC000002001210905803C2403A4461C0D671E2B
:103AD0003F05DB1BE70A6405640D02D0651CED0A97
:103AE00004D0002201231B05803C2403774064445A
:103AF00097B484B296B27443070C7E43150C6F439F
:103B000080B26843361802D3012000043F18300405
:103B1000350C00197D41844688B29AB250430C0C92
:103B200062431F0C7C438EB27E43921902D301265E
:103B30003604A4191604170C3618674101BC81B26B
:103B40009AB25143040C62431B0C5C4380B258434D
:103B5000121802D30120000424181004130C40187A
:103B600063412D185E410020474106BC88B293B2E4
:103B700058430C0C6343120C544389B251435B18F5
:103B800002D301210904641819041A0C09186241AE
:103B90006D1856410020474118BCF902720D1143BF
:103BA000F0026A0D1043ED020A0D03D16D19404178
:103BB0004941013B124E9B1B7600B3420ED26D0071
:103BC00007D30130002671416646354301D14008D4
:103BD00040001B05C918E4072144F0BD0BDA01338E
:103BE00006D1013004D101314F0D01D04908F2E76F
:103BF000E1070020F0BD013631050020EBE70000B1
:103C0000FF030000F0B51C0D671E3F05DB1BE70A34
:103C10006405640D02D0661CF60A04D0002201235C
:103C20001B05803C2403D0252D060026F6432E6676
:103C30001E096E66CE0FF619B44649004F0D02D02C
:103C40007E1CF60A03D000200021403F3F033E1BAC
:103C5000B600B444013F7F05C91B49082E6F0136E9
:103C600076089C02950D25437543ED137543AD13FE
:103C700001356D10F603761B0CB4CC02450D2C43B8
:103C8000A2B2B3B25A43270C7B43350C6F43A4B2A4
:103C90006C431B1902D3012424043F191C041D0C7E
:103CA000A4187D4124196D41009A91B2ACB26143D0
:103CB000170C7C432B0C5F4392B25A43A41802D3D7
:103CC00001221204BF182204230C52187B41019CCC
:103CD0006C431B19520ED9010A434401A01A81B248
:103CE000B2B2514303145A43360C734387B277433D
:103CF000D617D21900277E4136049B191704160CDB
:103D00007F185E417316ED18F3010026803375416C
:103D1000A90F06D16400690AE8055B0A184309D2B5
:103D20002FE00422944480337541A90AA8059B0A18
:103D3000184326D3404149412404009A019B0D00B9
:103D40005543641B4343E41A95B286B27543170C7E
:103D50007E43030C5F4392B25A43B61802D301224A
:103D60001204BF183204330C52197B4152429C4159
:103D7000002C02D40022013051414008CA071043F0
:103D8000490802B06246D7079210084BD218084B78
:103D90009A4203D212058918C919F0BD0020002AE1
:103DA00001DC3900F0BD01331905F5E7FD03000022
:103DB000FE070000002200B5203200F004F80800E1
:103DC00000BD000000220B150AD410B5944600F087
:103DD00031F81414013400DA0021CB17144C2047B9
:103DE0000020002170476244343A0CD40C2A07DAD0
:103DF00004009140904052422032D440214310BDF3
:103E0000D843D94310BD203207D40C4694405242C7
:103E100020321141D040204310BD0800C917203284
:103E200003D452422032104110BD1800190010BDB9
:103E3000E73D00100A0DCC0F531E1B05C91A520591
:103E400003D3C943404200D30131520D03D0531C68
:103E5000DB0A07D0121B00206400611C890789124D
:103E6000803A1203014BD21A70470000FF03000092
:103E700051434343C9188C46110C83B24B4310B4D1
:103E8000040C614392B280B2504362431C041B0C89
:103E9000001910BC59411304120CC018514161445F
:103EA0007047000070B513231D782A48FFF750F9BA
:103EB0000400012D11D0012D09DDA31E1B789B00EC
:103EC0007F2B40DD80222100234800F091F8234819
:103ED000FFF736F9224B186070BD542201001E48CE
:103EE00000F086F81F4B1A881F4B9A421CD1A7235B
:103EF0009B011A881D4B9A4216D11D4B1A881D4BE7
:103F00009A4211D11C4B1A8894239B019A420BD1DF
:103F10001A4B1A881A4B9A4206D11A4B1A681A4B36
:103F20009A4201D1152307E01848FDF785FE990054
:103F30001748094A885001331F2BF8D9144A064BF9
:103F40001A62DA61B7E7134B134A42211348FDF7AF
:103F5000D9FDC04653460000200500204C33000028
:103F60001C050020EE290000C40F0000C20D000057
:103F7000962B0000C0B50000182B0000CC2A0000D2
:103F800010B50000FC2C000051ED876424430010A4
:103F9000A13F001040510010C85100107451001092
:103FA00007B56046002800D100BE01880A0A023029
:103FB000DF2AFAD1C9B2820804D3028840880004FB
:103FC000104300E00068024A5050039007BD000013
:103FD0002005002001480421014B18474002002021
:103FE00061310010014B1B6818470000400200209F
:103FF000014B5B68184700004002002010B5030029
:10400000080011001B68984710BD0000F8B50700B4
:104010000D001600437C002B02D0002400200CE091
:1040200003681100280098472DE03B7C10E0022136
:1040300015483B689847601C0134B44214DA002CE0
:10404000F3DD2B19013B1B780D3B5A425341DBB288
:104050002A5D0A2AF0D1002BEED1A042E7DA211A1C
:1040600028183B689847E2E7B04203DA311A28186B
:104070003B689847002E06DDAD19013D2B780D3BBE
:104080005A4253413B74F8BD5452001070B50500BC
:104090000368002B16D00C4B1C6805E0290004C9EE
:1040A0002000FFF7B3FFE468002C09D02368002B41
:1040B000F9D0064B1B68002BF0D0A342F3D1EDE7FB
:1040C00000232B6070BDC0460404002008040020BB
:1040D00070B505000C000B68802B05D021684B1CC7
:1040E00023606418257170BD0800FFF7CFFFF5E766
:1040F00010B582B0D0231B0600241C5701A9074825
:1041000000F0FAF8002806D1019B9C4203D0034836
:1041100000F0FAF8012002B010BDC04650020020A5
:1041200010B5024800F0D0F810BDC0465002002083
:10413000F0B5CE46474680B583B006000D009046E8
:104140001C00FFF7D5FF81466B1C05D0002C08D062
:10415000194F1A4B1C6807E0300000F085F8050085
:10416000F4E7174FF5E7E468002C17D02368002B1D
:10417000F9D0144B1B68002B01D0A342F3D12A00C5
:1041800031002000B8474346002BECD06B46D91DC8
:104190000A230B7001222000B847E4E74B46002BAE
:1041A00007D16B1E9D41E8B203B0C0BCB946B04612
:1041B000F0BDFFF7B5FFF4E7FD3F00100404002059
:1041C0000D4000100804002010B5064B1C6801E0EB
:1041D0009847E468002C03D06368002BF8D1F8E717
:1041E00010BDC0460404002070B5050000F03CF886
:1041F00004000023012201002800FFF799FFFFF7C8
:10420000E3FF200070BD000070B5A2B004000E00F6
:10421000FFF76EFF05008422002101A8FFF7E2FEF0
:104220003300220001A90848FEF772FF040001A82C
:10423000FFF72CFFFFF7C8FF002D02D1200022B0AE
:1042400070BDFFF76DFFF9E7D14000100FB400B566
:1042500083B004A901C90191FFF7D6FF03B008BCE0
:1042600004B018477047000010B583070AD0030058
:10427000032102E001330B4205D01A78002AF9D15C
:10428000181A10BD030019680C4A0D4C8A188A438D
:1042900022420FD15968094A04338A188A432242BC
:1042A00008D15968054A04338A188A432242F1D05A
:1042B00000E001331A78002AFBD1E1E7FFFEFEFEA1
:1042C00080808080F8B5C04601B40248844601BCB5
:1042D000604700BF5101002001B40248844601BC80
:1042E000604700BF9D01002001B40248844601BC24
:1042F000604700BF9D01002001B40248844601BC14
:10430000604700BF0901002001B40248844601BC97
:08431000604700BFC10000205E
:10431800313233343536373839300D0A0000000071
:1043280064656C7461203E3D202D3230343820267F
:10433800262064656C7461203C3D20323034362080
:10434800262620212864656C7461202620312900E6
:10435800433A5C55736572735C6D333932355C442E
:104368006F63756D656E74735C5069636F5C7069BB
:10437800636F2D73646B5C7372635C7270325F631E
:104388006F6D6D6F6E5C68617264776172655F698D
:1043980072715C6972712E630000000021286465E7
:1043A8006C7461203E3E203131752900637572724C
:1043B800656E74203D3D205F5F756E68616E646C4C
:1043C80065645F757365725F697271207C7C2063B8
:1043D800757272656E74203D3D2068616E646C650F
:1043E800720000006972715F68616E6465725F6374
:1043F8006861696E5F667265655F736C6F745F682C
:10440800656164203E3D20300000000076746162E2
:104418006C655F68616E646C6572203D3D205F5F0E
:10442800756E68616E646C65645F757365725F69EB
:1044380072710000212828282875696E74707472BA
:104448005F7429767461626C655F68616E646C651F
:104458007229202D20282875696E747074725F7413
:10446800296972715F68616E646C65725F63686107
:10447800696E5F736C6F747329202D203129257341
:10448800697A656F662873747275637420697271CE
:104498005F68616E646C65725F636861696E5F73A3
:1044A8006C6F74292900000030783163203D3D206D
:1044B800282A696E7374293E3E3131750000000068
:1044C80021657863657074696F6E207C7C206578DF
:1044D80063657074696F6E203D3D206E756D202B8D
:1044E8002031360066616C736500000069735F7384
:1044F80068617265645F6972715F7261775F686134
:104508006E646C657228736C6F745F68616E646C3E
:1045180065722900657863657074696F6E000000C4
:10452800666F756E640000006972715F6164645F34
:104538007461696C5F746F5F667265655F6C6973DF
:1045480074000000696E736572745F6272616E63F5
:10455800685F616E645F6C696E6B00006972715FA1
:1045680072656D6F76655F68616E646C6572000078
:104578006D616B655F6272616E6368007265736F0F
:104588006C76655F6272616E636800006972715F64
:104598007365745F6578636C75736976655F686168
:1045A8006E646C657200000072742D3E616C6172FD
:1045B8006D5F6964203D3D2069640000433A5C55A5
:1045C800736572735C6D333932355C446F63756D36
:1045D800656E74735C5069636F5C7069636F2D738B
:1045E800646B5C7372635C636F6D6D6F6E5C706936
:1045F800636F5F74696D655C74696D652E63000037
:104608006964202626206964203C3D20706F6F6C09
:104618002D3E686561702D3E6D61785F6E6F6465D3
:1046280073000000256C6C642028686920253032EE
:10463800782900006964202626206964203C3D20F2
:10464800686561702D3E6D61785F6E6F646573009B
:10465800433A5C55736572735C6D333932355C442B
:104668006F63756D656E74735C5069636F5C7069B8
:10467800636F2D73646B5C7372635C636F6D6D6FD6
:104688006E5C7069636F5F7574696C5C696E636C8E
:104698007564652F7069636F2F7574696C2F706806
:1046A8006561702E68000000706172656E745F69E4
:1046B800640000006368696C645F6964000000005E
:1046C800706172656E745F696420213D206368695A
:1046D8006C645F69640000002170685F636F6E74CA
:1046E80061696E735F6E6F646528706F6F6C2D3EC5
:1046F800686561702C2072657573655F696429004F
:1047080075735F73696E63655F626F6F74203C3D9C
:1047180020494E5436345F4D41580000433A5C55A9
:10472800736572735C6D333932355C446F63756DD4
:10473800656E74735C5069636F5C7069636F2D7329
:10474800646B5C7372635C636F6D6D6F6E5C7069D4
:10475800636F5F626173655C696E636C7564652F16
:104768007069636F2F74797065732E68000000009C
:1047780072656D6F7665645F6964203D3D206E6586
:1047880078745F696400000063616C6C6261636BDC
:1047980000000000706F6F6C2D3E616C61726D5F80
:1047A800696E5F70726F6772657373203D3D206D2F
:1047B800616B655F7075626C69635F6964286964C1
:1047C8005F686967682C206E6578745F6964290082
:1047D8006964202626202170685F636F6E746169A2
:1047E8006E735F6E6F646528686561702C206964FC
:1047F8002900000064656661756C745F616C6172A4
:104808006D5F706F6F6C5F696E697469616C697AEE
:104818006564282900000000417474656D70746532
:104828006420746F20736C65657020696E736964A9
:1048380065206F6620616E20657863657074696FA6
:104848006E2068616E646C65723B207573652062CA
:104858007573795F7761697420696620796F75204F
:104868006D757374000000007570646174655F7520
:10487800735F73696E63655F626F6F740000000039
:10488800616C61726D5F706F6F6C5F616C61726D8E
:104898005F63616C6C6261636B0000006765745FE5
:1048A800656E747279000000616C61726D5F706F83
:1048B8006F6C5F6765745F64656661756C74000032
:1048C8006765745F656E7472795F69645F6869674C
:1048D8006800000070685F667265655F6E6F64658A
:1048E8000000000070685F6164645F6368696C64FD
:1048F8005F6E6F646500000070685F696E73657253
:10490800745F6E6F6465000070685F6765745F6EE2
:104918006F6465006164645F616C61726D5F756E80
:104928006465725F6C6F636B0000000048617264BD
:104938007761726520616C61726D20256420616CFD
:10494800726561647920636C61696D65640000005B
:1049580074696D65725F68772D3E696E7473202681
:10496800203175203C3C20616C61726D5F6E756D05
:1049780000000000433A5C55736572735C6D33390F
:1049880032355C446F63756D656E74735C50696332
:104998006F5C7069636F2D73646B5C7372635C72B8
:1049A80070325F636F6D6D6F6E5C686172647761A2
:1049B80072655F74696D65725C74696D65722E638A
:1049C8000000000068617264776172655F616C6104
:1049D800726D5F7365745F7461726765740000005F
:1049E800726F6F745F696400433A5C5573657273E4
:1049F8005C6D333932355C446F63756D656E747305
:104A08005C5069636F5C7069636F2D73646B5C7372
:104A180072635C636F6D6D6F6E5C7069636F5F75F9
:104A280074696C5C70686561702E63002170685FE2
:104A38006765745F6E6F646528686561702C2072A5
:104A48006F6F745F6964292D3E7369626C696E6764
:104A5800000000002170685F6765745F6E6F6465B1
:104A680028686561702C20726F6F745F6964292DE6
:104A78003E706172656E74006E65775F7375625F14
:104A88007472656520213D20686561702D3E726FE6
:104A98006F745F696400000070685F72656D6F769F
:104AA800655F616E645F667265655F6E6F64650001
:104AB80070685F72656D6F76655F616E795F686556
:104AC8006164000070685F6164645F6368696C6456
:104AD8005F6E6F646500000070685F6765745F6E85
:104AE8006F646500746F74616C000000433A5C5534
:104AF800736572735C6D333932355C446F63756D01
:104B0800656E74735C5069636F5C7069636F2D7355
:104B1800646B5C7372635C636F6D6D6F6E5C706900
:104B2800636F5F73796E635C6D757465782E63006F
:104B38006D74782D3E636F72652E7370696E5F6C4D
:104B48006F636B006C6F636B5F69735F6F776E6524
:104B5800725F69645F76616C6964286D74782D3E54
:104B68006F776E65722900006D74782D3E656E74DE
:104B780065725F636F756E74000000006D75746513
:104B8800785F6578697400002C2066756E637469B7
:104B98006F6E3A2000000000617373657274696F6C
:104BA8006E2022257322206661696C65643A20664E
:104BB800696C6520222573222C206C696E6520257E
:104BC80064257325730A000031203D3D202875694E
:104BD8006E747074725F74296C2D3E7370696E5FA9
:104BE8006C6F636B00000000433A5C557365727329
:104BF8005C6D333932355C446F63756D656E747303
:104C08005C5069636F5C7069636F2D73646B5C7370
:104C180072635C7270325F636F6D6D6F6E5C70692A
:104C2800636F5F72756E74696D655C72756E7469B9
:104C38006D652E63000000000A2A2A2A2050414E82
:104C48004943202A2A2A0A000A00000072756E7455
:104C5800696D655F696E6974000000007372635F57
:104C680066726571203E3D20667265710000000025
:104C7800433A5C55736572735C6D333932355C4405
:104C88006F63756D656E74735C5069636F5C706992
:104C9800636F2D73646B5C7372635C7270325F63F5
:104CA8006F6D6D6F6E5C68617264776172655F636A
:104CB8006C6F636B735C636C6F636B732E63000064
:104CC800636C6F636B5F636F6E66696775726500AF
:104CD80076636F5F66726571203E3D2028504943B8
:104CE8004F5F504C4C5F56434F5F4D494E5F4652A5
:104CF80045515F4D485A202A204D485A29202626DA
:104D08002076636F5F66726571203C3D20285049AC
:104D1800434F5F504C4C5F56434F5F4D41585F4681
:104D28005245515F4D485A202A204D485A290000C3
:104D3800433A5C55736572735C6D333932355C4444
:104D48006F63756D656E74735C5069636F5C7069D1
:104D5800636F2D73646B5C7372635C7270325F6334
:104D68006F6D6D6F6E5C68617264776172655F709C
:104D78006C6C5C706C6C2E63000000006662646989
:104D880076203E3D203136202626206662646976EC
:104D9800203C3D203332300028706F73745F6469A3
:104DA8007631203E3D203120262620706F73745FB7
:104DB80064697631203C3D2037292026262028703A
:104DC8006F73745F64697632203E3D203120262659
:104DD80020706F73745F64697632203C3D203729F8
:104DE80000000000706F73745F64697632203C3D88
:104DF80020706F73745F6469763100007265665F56
:104E08006D687A203C3D202876636F5F6672657115
:104E1800202F203136290000706C6C5F696E697430
:104E280000000000666E6900666E692B00000000D5
:104E38006E616E00666E692D000000009A2B0010EE
:104E48004A2B00104A2B0010A42B00104A2B0010EC
:104E58004A2B00104A2B00104A2B00104A2B001036
:104E68004A2B00104A2B0010902B00104A2B0010E0
:104E7800862B00104A2B00104A2B00107C2B0010A8
:104E88003C2C0010622C00107A2C0010622C0010B0
:104E98001C2C0010622C0010622C0010622C0010D8
:104EA800622C0010622C0010622C0010622C001082
:104EB800582C0010622C0010622C0010622C00107C
:104EC800622C0010622C0010862C0010B6300010E6
:104ED800CC300010CC300010CC300010CC3000109A
:104EE800CC300010CC300010CC300010CC3000108A
:104EF800CC300010CC300010CC300010CC3000107A
:104F0800CC300010CC300010CC300010CC30001069
:104F1800CC300010CC300010CC300010CC30001059
:104F2800CC300010CC300010CC300010CC30001049
:104F3800CC300010CC300010CC300010CC30001039
:104F4800CC300010CC300010CC300010DE2E001019
:104F58009E2E0010DE2E0010CC300010CC30001039
:104F6800CC300010CC300010CC300010CC30001009
:104F7800CC300010CC300010CC300010CC300010F9
:104F8800CC300010CC300010CC300010CC300010E9
:104F9800CC300010CC300010922C0010CC30001017
:104FA800CC300010CC300010CC300010CC300010C9
:104FB800CC300010CC300010CC300010CC300010B9
:104FC800922C00102E2F0010922C0010DE2E0010B4
:104FD8009E2E0010DE2E0010CC300010922C0010F7
:104FE800CC300010CC300010CC300010CC30001089
:104FF800CC300010922C001080300010CC30001003
:10500800CC300010A62F0010CC300010922C0010CD
:10501800CC300010CC300010922C001000000000A2
:10502800000000000000F03F0000000000002440E5
:1050380000000000000059400000000000408F40C0
:10504800000000000088C34000000000006AF8402B
:105058000000000080842E4100000000D01263414F
:105068000000000084D797410000000065CDCD41C5
:105078002A282875696E74385F74202A29282828F8
:10508800766F6964202A29726F6D5F646174615F4D
:105098006C6F6F6B757028726F6D5F7461626C6591
:1050A8005F636F6465282753272C20274627292903
:1050B800292D322929202A2034203E3D2053465FBD
:1050C8005441424C455F56325F53495A45000000EF
:1050D800433A5C55736572735C6D333932355C44A1
:1050E8006F63756D656E74735C5069636F5C70692E
:1050F800636F2D73646B5C7372635C7270325F6391
:105108006F6D6D6F6E5C7069636F5F646F75626CF5
:10511800655C646F75626C655F696E69745F726FF8
:105128006D2E63005F5F61656162695F646F7562C0
:105138006C655F696E6974002A282875696E743811
:105148005F74202A2928726F6D5F7461626C652D07
:10515800322929202A2034203E3D2053465F5441DD
:10516800424C455F56325F53495A4500433A5C55B5
:10517800736572735C6D333932355C446F63756D7A
:10518800656E74735C5069636F5C7069636F2D73CF
:10519800646B5C7372635C7270325F636F6D6D6FAA
:1051A8006E5C7069636F5F666C6F61745C666C6F70
:1051B80061745F696E69745F726F6D2E63000000C1
:1051C8005F5F61656162695F666C6F61745F696E7C
:1051D800697400004465627567000000626F6F744F
:1051E800325F77323571303830000000302E3100B0
:1051F800312E342E300000007069636F000000000B
:105208007069636F556172745478496E7400000058
:105218004465632033302032303232000600525069
:10522800BBFF3CB600520010060052503ABCA91110
:10523800F451001006005250E182887FE4510010BA
:1052480006005250D3F07542DC5100100D0A0000E0
:10525800B4020010A80200109C0200102452001092
:1052680090020010305200103C52001048520010BA
:1052780010B5D0231B0600241C570268EFF31081D9
:1052880072B61368002BFCD0BFF35F8F0423C3569C
:10529800002B08DB0368BFF35F8F00221A6081F3DD
:1052A800108820BFE9E704710368BFF35F8F00220D
:1052B8001A6081F3108810BD03000068EFF3108CAA
:1052C80072B60268002AFCD0BFF35F8F04229A5698
:1052D800002A0BDB002910D00A6000201B68BFF3EE
:1052E8005F8F00221A608CF310887047D022120654
:1052F800127852B21A710120F0E70020EEE70000A0
:1053080010B50268EFF3108172B61368002BFCD059
:10531800BFF35F8F0423C356002B0ADBFF230371FF
:105328000368BFF35F8F00221A6081F3108840BFC3
:1053380010BD034B034AA921034800F009F8C046F1
:105348004C4B0010844B0010F44A00107047C046C4
:1053580001B40248844601BC604700BF051B001029
:105368001000000000000000000001000000000024
:105378000000000000000200000000000000000023
:105388000000030000000000000000000000FF0013
:105398000000000000B5486801318E46004770469D
:1053A80009380149884700BD3D0800101402002053
:1053B8000000000070020020C4030020000000006C
:1053C80000000000D40300200000000000000000DE
:1053D80010000000000000000000000000000000B5
:1053E800503300004C3300005433000052330000A7
:1053F8004D5300004D430000533400004334000077
:105408000000000000000000D53F001031310010FE
:0C54180041380010A53E0010ED0200100D
:04000005100001E9FD
:00000001FF
